:100000000C9497050C94DE050C94DE050C94DE052B
:100010000C94DE050C94DE050C94DE050C94DE05D4
:100020000C94DE050C94DE050C94EA2F0C94BC3085
:100030000C94ED260C94DE050C94DE050C94DE0584
:100040000C94DE050C94DE050C94DE050C94DE05A4
:100050000C94DE050C943A270C94DE050C94DE0516
:100060000C94DE050C94DE050C94DE050C94DE0584
:100070000C94DE050C94DE050C94DE050C94DE0574
:100080000C94DE050C94DE050C94DE050C94DE0564
:100090000C94DE050C94DE050C94DE050C94DE0554
:1000A0000C94DE050C94DE050C94DE05DC13DF13E6
:1000B000E713EC13F113F613FB13001405140A14E1
:1000C0000F141414161419141C141F1422142514BC
:1000D00027142C14E31BE31B151C151C621C801C2D
:1000E000A11DA11D8B1C201D311D311D911DA11DA8
:1000F000A11D9A1D411E411E531E531E4A1E531E12
:10010000531E531E411E411E4F1E531E531E4F1E93
:10011000293150314832503148329C31BF31483258
:100120001632253229001E001F0020002100220067
:10013000230024002500260027002D002E000000AB
:100140002A002A002B00000014001A0008001500E5
:1001500017001C0018000C00120013002F003000C4
:100160003100C35C390000000400160007000900DC
:100170000A000B000D000E000F00330034002800B1
:100180000000C45CE10000001D001B000600190017
:100190000500110010003600370038000000E500AF
:1001A00052004C00E000E3000000E200000000000C
:1001B0002C00000000000000E60001510151500039
:1001C00051004F0035003A003B003C003D003E002E
:1001D0003F00400041004200430044004500000051
:1001E0004C00490001000000010052000100010024
:1001F00001000100010046004700480052000100D4
:100200000100010001000000500051004F000100FA
:100210000100010001004A004B0050004F000100A6
:1002200000000100010000000100010001000100C8
:100230000100010001004D004E00510000000100CE
:100240004B0001000100010000000100000000005F
:1002500001000000000000000100010001004A0050
:100260004E004D0044454255473A2064697361622F
:100270006C65642E0A0044454255473A20656E611C
:10028000626C65642E0A000A002530313662003A3D
:10029000200025303258000A722F6320303132336B
:1002A0003435363738394142434445460A0072678F
:1002B000626C696768742074696D65722064697323
:1002C00061626C652E0A007267626C6967687420EF
:1002D00074696D657220656E61626C65642E0A00DA
:1002E0007267626C696768742073657420687376DE
:1002F000205B4E4F454550524F4D5D3A2025752CA1
:1003000025752C25750A007267626C696768742010
:1003100073657420687376205B454550524F4D5D80
:100320003A2025752C25752C25750A007267626C9C
:1003300069676874207261696E626F772073657493
:10034000206873763A2025642C25642C25642C259E
:10035000750A007267626C6967687420646973610A
:10036000626C65205B4E4F454550524F4D5D3A20C3
:100370007267626C696768745F636F6E6669672E27
:10038000656E61626C65203D2025750A00726762AA
:100390006C696768742064697361626C65205B4591
:1003A0004550524F4D5D3A207267626C69676874C0
:1003B0005F636F6E6669672E656E61626C65203D76
:1003C0002025750A007267626C6967687420656E23
:1003D00061626C65205B4E4F454550524F4D5D3A12
:1003E000207267626C696768745F636F6E666967C5
:1003F0002E656E61626C65203D2025750A0072676E
:10040000626C6967687420656E61626C65205B452B
:100410004550524F4D5D3A207267626C696768744F
:100420005F636F6E6669672E656E61626C65203D05
:100430002025750A007267626C6967687420746FA2
:1004400067676C65205B454550524F4D5D3A2072A1
:1004500067626C696768745F636F6E6669672E6553
:100460006E61626C65203D2025750A007267626CC2
:1004700069676874206D6F6465205B4E4F45455019
:10048000524F4D5D3A2025750A007267626C6967AC
:100490006874206D6F6465205B454550524F4D5D1B
:1004A0003A2025750A007267626C696768745F6933
:1004B0006E6974207267626C696768745F636F6EDF
:1004C0006669672E6D6F6465203D20302E2057725F
:1004D0006974652064656661756C742076616C75FD
:1004E000657320746F20454550524F4D2E0A00729F
:1004F00067626C696768745F696E697420656563BB
:100500006F6E666967206973206E6F7420656E6117
:10051000626C65642E0A007267626C696768745F5A
:10052000696E6974207374617274210A0072676263
:100530006C696768745F696E69742063616C6C656F
:10054000642E0A007267626C696768745F636F6E1D
:100550006669672E7370656564203D2025640A0016
:100560007267626C696768745F636F6E6669672E35
:1005700076616C203D2025640A007267626C6967B1
:1005800068745F636F6E6669672E736174203D20C7
:1005900025640A007267626C696768745F636F6ED6
:1005A0006669672E687565203D2025640A007267BC
:1005B000686C696768745F636F6E6669672E6D6FDC
:1005C0006465203D2025640A007267626C69676873
:1005D000745F636F6E6669672E656E61626C65201D
:1005E0003D2025640A007267626C696768745F6306
:1005F0006F6E66696720454550524F4D3A0A00328A
:10060000190A00047F3F1F643214643214783C1EC0
:100610001E140A052223252628292A2C2D2F3032A4
:10062000333536383A3B3D3E4042434547494A4CD4
:100630004E5051535557595A5C5E60626466686902
:100640006B6D6F71737577797B7D7F81838587890A
:100650008A8C8E90929496989A9C9E9FA1A3A5A70F
:10066000A8AAACAEAFB1B3B4B6B8B9BBBCBEBFC13B
:10067000C2C3C5C6C7C9CACBCCCDCED0D1D2D2D3C6
:10068000D4D5D6D7D7D8D9D9DADADBDBDBDCDCDCDA
:10069000DCDCDDDDDDDDDCDCDCDCDCDBDBDBDADA9D
:1006A000D9D9D8D7D7D6D5D4D3D2D2D1D0CECDCC14
:1006B000CBCAC9C7C6C5C3C2C1BFBEBCBBB9B8B629
:1006C000B4B3B1AFAEACAAA8A7A5A3A19F9E9C9AB4
:1006D00098969492908E8C8A89878583817F7D7B82
:1006E00079777573716F6D6B6968666462605E5C63
:1006F0005A5957555351504E4C4A49474543424029
:100700003E3D3B3A3836353332302F2D2C2A2928BE
:1007100026252322FFAA7F55406261636B6C6967BF
:10072000687420737465703A2025750A00626163ED
:100730006B6C696768742064697361626C650A0038
:100740006261636B6C6967687420656E61626C6579
:100750000A006261636B6C6967687420746F676715
:100760006C653A2025750A006261636B6C69676885
:10077000742064656372656173653A2025750A00AB
:100780006261636B6C6967687420696E637265612E
:1007900073653A2025750A0000010101010101017C
:1007A0000101020202020202020202030303030326
:1007B00003030304040404040404050505050506F5
:1007C00006060606070707070708080808090909B3
:1007D000090A0A0A0B0B0B0C0C0C0D0D0D0E0E0E5C
:1007E0000F0F0F10101111111212131314141515ED
:1007F00016161717181819191A1A1B1B1C1D1D1E5F
:100800001E1F2020212222232424252626272829B2
:10081000292A2B2C2D2D2E2F3031323233343536E0
:100820003738393A3B3C3D3E3F40414243444546E0
:100830004748494A4C4D4E4F5051535455565859BC
:100840005A5B5D5E5F616264656668696B6C6D6F63
:100850007072737577787A7B7D7E808283858788D6
:100860008A8C8E8F91939596989A9C9EA0A2A3A510
:10087000A7A9ABADAFB1B3B5B7BABCBEC0C2C4C611
:10088000C9CBCDCFD1D4D6D8DBDDDFE2E4E7E9EBCD
:10089000EEF0F3F5F8FAFDFF0A002530325820009B
:1008A0006B6579626F6172645F7265706F72743AC2
:1008B00020000A0025303258006B6579626F617242
:1008C000645F7365745F6C65643A200064656C5F97
:1008D0006B65795F6269743A2063616E2774206486
:1008E000656C3A20253032580A006164645F6B659C
:1008F000795F6269743A2063616E27742061646471
:100900003A20253032580A00290A002575002F00A8
:100910002575005D28002564002000256400200066
:1009200025640020002564007C0025303258006DCD
:100930006F7573656B6579205B62746E7C78207966
:10094000207620685D287265702F61636C293A20DB
:100950005B005B735D004B6579626F61726420734D
:10096000746172742E0A005B575D005B535D005B1F
:10097000525D005B445D005B435D0010034B004231
:100980000044003600370076003200000010034BB0
:100990000042004400460061006E00730000000445
:1009A00003090409025B00030100A0FA0904000026
:1009B0000103010100092111010001224000070586
:1009C000810308000A090401000103000000092155
:1009D0001101000122BC000705820320000A09045E
:1009E000020002030000000921110100012222007F
:1009F00007058303200001070503032000011201FE
:100A0000100100000008424B676002000102000173
:100A10000631FF0974A1010975150026FF00952014
:100A2000750881020976150026FF0095207508914A
:100A300002C005010902A10185020901A100050901
:100A400019012905150025019505750181029501FA
:100A5000750381010501093009311581257F950252
:100A60007508810609381581257F9501750881066D
:100A7000050C0A38021581257F950175088106C08D
:100A8000C005010980A101850319012AB7001501DC
:100A900026B700950175108100C0050C0901A10160
:100AA000850419012AA002150126A00295017510DE
:100AB0008100C005010906A1018505050719E02986
:100AC000E715002501950875018102050719002920
:100AD000EF1500250195F07501810205081901291E
:100AE00005950575019102950175039101C00501F8
:100AF0000906A101050719E029E715002501950858
:100B0000750181029501750881010507190029FF0A
:100B1000150026FF009506750881000508190129B2
:100B200005950575019102950175039101C0112488
:100B30001FBECFEFDAE0DEBFCDBF04B603FE27C095
:100B400080919F039091A003A091A103B091A20373
:100B50008730904BA740B04BD1F410929F03109276
:100B6000A0031092A1031092A20314BE84B7877F42
:100B700084BF0FB6F894A895809160008861809337
:100B80006000109260000FBEE0E0F8E3099511E00C
:100B9000A0E0B1E0E0EFF7E602C005900D92AE3DB7
:100BA000B107D9F723E0AEEDB1E001C01D92AF3936
:100BB000B207E1F70E94212D0C94F6330C9400004B
:100BC000FF93EF93E091DE01F091DF01309709F0A0
:100BD0000995EF91FF910895FC018591803011F006
:100BE000EFDFFBCF0895FF27E0E230E247FF0CC0C4
:100BF000419597FF09C0EDE26095709580959095BD
:100C0000611D711D811D911D27FF02C0219530E3DB
:100C100050E2AA27660F771F881F991FAA1FA417E3
:100C200010F0A41B63955A95A9F7AA3008F0A95FA4
:100C3000A05DAF93F395611571058105910541F7AD
:100C4000ED3211F4EF93F395F21718F43F93F39507
:100C5000FBCF8F91B5DFFA95E1F70895E991F9910E
:100C60008591803021F0853219F0AADFF9CF0895FF
:100C700020E0E89455915532C1F3503311F4689453
:100C800055915A3348F4505390F3220F022E220FFD
:100C9000220F200D250FF4CF0EF421958991999103
:100CA000533619F3533729F1533559F1BC018827CD
:100CB0009927E8945C3621F489919991689455912B
:100CC000543639F446EF7EF077FF0DC08FEF9FEF7B
:100CD0000AC055374AE039F0583540E121F0523624
:100CE00042E009F00895FF93EF937DDFEF91FF91CC
:100CF000B7CFFF93EF93FC0181918030B9F360DFB0
:100D0000FBCFFF93EF9368DFF1CFDF93CF93CDB7A6
:100D1000DEB72596A3DFCF91DF910895549A0C9406
:100D2000E909CF93C82F0E947507882329F0C1FDD8
:100D300002C05C9A01C05C98CF91089581E008954B
:100D400081E008950C94A00608950C94A4061F93C6
:100D5000CF93DF9300D000D01F92CDB7DEB7498389
:100D60005A836B833091680289819A81311114C052
:100D7000662359F0222349F00E947D23182F682F03
:100D800089819A810E94262303C00E945123182F33
:100D900069817A81812F04C00E947D2369817A81D3
:100DA0000F900F900F900F900F90DF91CF911F91A8
:100DB0000C948407FC01262F40815181628173814C
:100DC00084810C94A706CF93DF93EC0160E00E942E
:100DD000DA06BE01DF91CF910C94A5060E9486270A
:100DE0000E94DF24811102C00E948F250E941B16E1
:100DF0000C948E060C94E70908950E942F1E0E9401
:100E0000FC062FEF84E39CE0215080409040E1F706
:100E100000C000000C9460270F931F93CF93DF93C3
:100E2000EC0161E00E94DA068C01BE010E94A2067C
:100E3000882309F450C0BE01C8010E947C15882394
:100E400009F449C0BE01C8010E94EE16882309F4C6
:100E500042C0BE01C8010E9440178823E1F1BE01D3
:100E6000C8010E946B188823B1F1BE01C8010E941D
:100E7000C513882381F18A81882331F101308CE503
:100E8000180751F00F3D8CE51807D9F001151C45E6
:100E9000D9F40E94FD061FC080910003C82FC095A1
:100EA000C170C0FB80F980930003CC2329F086E752
:100EB00092E00E94EC050FC084E692E00E94EC05EF
:100EC0000BC00E948F2507C0CE01DF91CF911F91EB
:100ED0000F910C949E06C0E08C2FDF91CF911F9153
:100EE0000F91089508950C94720781E00895CF93AF
:100EF000C82F0E9473078C2F0E949106CF910895EE
:100F000080E090E008950895E72FF0E095E0899F54
:100F1000E00DF11D112484E0EE0FFF1F8A95E1F72B
:100F2000E60FF11DEE0FFF1FEC5DFE4F85919491D2
:100F30000895880F991FFC01E957FD4F8591949101
:100F40000895CF93DF930E9484070E94B908EC01B3
:100F50008115904508F041C0C11580E4D80708F01C
:100F6000D1C0C83ED10510F5C03ED10508F0FDC086
:100F7000C83AD10578F4C53AD10508F0A2C0C1300D
:100F8000D10509F4F2C008F4EEC0C430D10508F070
:100F9000ECC0E9C0CF3BD10508F49BC0C03CD105F3
:100FA00008F4E1C0CE01805C91099EC0C11590E2B9
:100FB000D90758F4C11521E0D20708F0D6C0C03FC8
:100FC000D10508F4D0C0D065D0C0C11580E3D807E2
:100FD00008F08EC0CE019F7087C0C11595E5D90776
:100FE00008F043C0C11524E5D20708F0A2C0C1151E
:100FF00082E5D80708F5C11591E5D90708F085C045
:10100000CE0174E0969587957A95E1F783709C2FD1
:10101000937021E030E002C0220F331F9A95E2F76F
:101020003C68382BCF70C695C69580E2C89FE0011A
:101030001124C22BD32B99C09E01237033278C2FF0
:1010400086958695C115D34508F064C0C1E0D0E00F
:1010500002C0CC0FDD1F2A95E2F720E2829FC0017B
:101060001124C82BD92BDC6880C0C11529E5D20713
:10107000A0F4C11588E5D80708F060C0C11596E551
:10108000D90708F070C08C2F0E944D098F71C82FAE
:10109000D0E0DC2FCC27D06268C0C1152AE5D2078A
:1010A00008F451C0CE0190568115904208F05BC003
:1010B0008D2F8F710E944D09DD27D0628F71D82B43
:1010C00054C0C55AD0E0C65ADE4FC881D0E0D064C3
:1010D0004CC0C85AD0E0CC0FDD1FC45DDE4F099074
:1010E000D881C02DD46441C00E949907EC013DC055
:1010F000CE019927D3FF03C0EC01D86C36C0EC01B8
:10110000D06C33C0DF70D06A30C0DC2FCC27C16F09
:10111000D06A2BC0C1E0D0E002C0CC0FDD1F2A9501
:10112000E2F720E2829FC0011124C82BD92BDA6894
:101130001CC0DC2FCC27C46FD06A17C0DC2FCC2793
:10114000C06FD06A12C08C2F8F700E944D0994E03E
:10115000D695C7959A95E1F7CF70D0E0DC2FCC27D4
:10116000D069C82B02C0C0E0D0E0CE01DF91CF91A2
:1011700008958238910569F1B0F48133910509F43D
:101180006DC048F48932910509F463C08A32910533
:1011900009F469C008958533910509F455C0893370
:1011A0009105B9F00895833E910569F138F4803EC8
:1011B0009105B1F0823E910509F10895863E9105B1
:1011C000A9F1873E9105B9F1843E910509F064C00B
:1011D00023C02091900320FD4FC021FD4DC00895F4
:1011E0008091900380FD44C08091910380FF44C0B2
:1011F0008091900384FD42C083EE4DC080919003A6
:1012000082FF38C0F5CF8091900382FD33C080917A
:10121000910380FD31C0ECCF8091910381FF32C0FA
:101220008091900384FD2AC087EE35C080919003A1
:1012300083FF26C0F5CF8091900383FD21C080916C
:10124000910381FD1FC0ECCF8091900385FD1CC0F0
:101250001DC08091900385FD19C016C08091900338
:1012600086FD16C017C08091900386FD13C010C084
:1012700089E311C082EE0FC080EE0DC080E00BC08C
:1012800086EE09C084EE07C089E205C085E303C08D
:101290008AE201C081E390E008959091900392FF6B
:1012A0000DC0282F2871283019F4877F846006C06C
:1012B000282F2471243011F48B7F886093FF0DC098
:1012C000282F2871283119F4877E846106C0282FC1
:1012D0002471243111F48B7E88612091910320FFC9
:1012E0000DC0382F3871383019F4877F816006C0FF
:1012F000382F3171313011F48E7F886021FF0DC09D
:10130000282F2871283119F4877E816106C0282F83
:101310002171213111F48E7E886194FD877E0895BC
:10132000E82FF0E0EE0FFF1FE05CFC4F8081918121
:101330000895CF92DF92EF92FF920F931F93CF9376
:10134000DF9387E992E00E94EC0580E4E82E83E0D9
:10135000F82EC0E0D0E092E9C92E92E0D92E09E83B
:1013600012E0DF93CF93DF92CF920E9485068FE841
:1013700092E00E94EC05F701819191917F010E941A
:10138000C6249F938F931F930F930E94850687E82F
:1013900092E00E94EC0521968DB79EB708960FB695
:1013A000F8949EBF0FBE8DBFC530D105D1F6DF9139
:1013B000CF911F910F91FF90EF90DF90CF90089504
:1013C00080EA8A95F1F7089508950C94E4090C9445
:1013D000E5090C94E409F894E82FE295EF70F0E049
:1013E00031A1282F2F7081E090E001C0880F2A954D
:1013F000EAF7982F9095932391A392A1892B82A32A
:10140000789408950F931F93CF93DF9387E30E94FF
:10141000EB0980E90E94EB0980EF0E94EB0981EF64
:101420000E94EB0984EF0E94EB09CDE5D1E00DE6C7
:1014300011E089910E94EB090C171D07D1F7E6E333
:10144000F3E0A0E4B3E0119211921D921D9283E0AB
:10145000E034F807C1F785E00E94C00ADF91CF9120
:101460001F910F910C94EE067F928F929F92AF92F4
:10147000BF92CF92DF92EF92FF920F931F93CF9381
:10148000DF93CDE6D1E086E3A82E83E0B82E90E48A
:10149000E92E93E0F92E712C01E010E06E018881B5
:1014A000F894E82FE295EF70F0E021A18F70A80189
:1014B00002C0440F551F8A95E2F7CA01922F982B5C
:1014C00091A392A18095892382A378940E94E00938
:1014D000EDE5F1E020E030E0812C912C4191A42F4A
:1014E000A295AF70B0E090968C9190E04F7002C0E2
:1014F000959587954A95E2F780FD08C0C801022EB0
:1015000002C0880F991F0A94E2F702C080E090E0C1
:10151000882A992A2F5F3F4F20313105F9F621960D
:10152000F60180810E94EB09F50180819181881686
:10153000990621F09182808281E001C080E0782AC2
:10154000F2E0AF0EB11CEA14FB0409F0A7CF272D7F
:1015500045E060E473E086E393E00E94C10A0E94E4
:10156000FA06872DDF91CF911F910F91FF90EF9099
:10157000DF90CF90BF90AF909F908F907F90089515
:101580000895FF920F931F93CF93DF93F82E092FA7
:10159000162FD72FC42F222349F081E08093E20138
:1015A0000E941F279093E1018093E0018091E20166
:1015B0008823D9F08091E0019091E1010E942B27CE
:1015C000069798F0EF2DF02FA12FBD2F80E090E02F
:1015D0004C2F50E08417950734F4219131912D93CD
:1015E0003D930196F7CF1092E201DF91CF911F91C9
:1015F0000F91FF900895EF92FF920F931F93CF9357
:10160000DF938B01682F11110AC0442329F0E82FC2
:10161000F0E0E856F84F6491762F862F75C0212FA1
:1016200030E0E82FF0E0442321F0E856F84FE49151
:10163000F0E046E0049FC0011124CFEFD0E0BE01EE
:101640000E94A5324BEA4603C001479F900D11242A
:10165000800F911D800F911D982F990F890FAE015A
:10166000421B530B4E9FD0014F9FB00D5E9FB00D9C
:1016700011249B2F189FA0011124452F55278E015F
:10168000041B150B0E9FA0010F9F500D1E9F500DA8
:1016900011247E01E81AF108E29E8001E39E100DFC
:1016A000F29E100D1124212F3327C21BD30BCE9F86
:1016B0009001CF9F300DDE9F300D112462307105F7
:1016C000A9F048F46115710569F061307105C9F43C
:1016D0008B2F752F0DC06430710581F058F0663086
:1016E000710579F47E2F8B2F932F0DC0832F7B2FC5
:1016F0009E2F09C08E2F7B2F952F05C08E2F732F05
:1017000002C07E2F852F692FDF91CF911F910F91FE
:10171000FF90EF90089541E00E94FB0A089508951C
:101720000E948B0B0895CF93DF93762FE901682FEA
:10173000842F0E94900B798368838A83DF91CF91F5
:101740000895413F08F040EF0C94930B80914A03B9
:10175000282F269530E02115310519F4817082601B
:1017600005C02B32310524F08170846580934A03D3
:1017700080914D03813F18F080EF80934D030895D1
:1017800088E090E00C949733CF92DF92EF92FF9233
:101790006B017C010E94A60BB701A60188E090E0D6
:1017A000FF90EF90DF90CF900C94B533EAE4F3E034
:1017B00083E0808311828FEF828380EF83831482A2
:1017C00060817181828193810C94C40B80910003AC
:1017D00080FF08C086EE95E09F938F930E94850658
:1017E0000F900F908091000380FF0FC080914A03FB
:1017F00081701F928F9389EC95E09F938F930E9445
:1018000085060F900F900F900F908091000380FF3E
:101810000FC080914A0386951F928F938EEA95E0C0
:101820009F938F930E9485060F900F900F900F90BB
:101830008091000380FF0EC080914B031F928F9315
:1018400084E995E09F938F930E9485060F900F90F7
:101850000F900F908091000380FF0EC080914C0389
:101860001F928F938AE795E09F938F930E9485063E
:101870000F900F900F900F908091000380FF0EC08B
:1018800080914D031F928F9380E695E09F938F93F5
:101890000E9485060F900F900F900F90809100038B
:1018A00080FF0EC080914E031F928F9384E495E0D9
:1018B0009F938F930E9485060F900F900F900F902B
:1018C000089580914A0380FF02C08695089580E0C4
:1018D000089590914E03933018F49F5F90934E03B8
:1018E000882351F060914A0370914B0380914C031F
:1018F00090914D030C94C40B089581E00C94690CF5
:1019000090914E03992319F0915090934E038823A0
:1019100051F060914A0370914B0380914C03909178
:101920004D030C94C40B089581E00C94800C70E07E
:101930000C942B166091080180914A0380FF0AC025
:101940008091070123E0829FC0011124815B9C4F9D
:101950000C94970C8091090190910A01891780F7E6
:10196000E82FF0E09F01220F331FE20FF31FE15B2E
:10197000FC4F1182108212828F5FF0CF90914A0348
:1019800090FF16C09091090120910A01921770F4FE
:10199000E92FF0E0DF01AA0FBB1FEA0FFB1FE15B9D
:1019A000FC4F8183608342839F5FF0CF0C949A0C3D
:1019B0000895CF93DF9300D01F92CDB7DEB79091FB
:1019C0004A0390FF0AC09E012F5F3F4F0E94A10B68
:1019D0004B8169818A810E94BE0C0F900F900F90FD
:1019E000DF91CF910895CF93DF93EC01EC81F0E08C
:1019F000EC5EF94F4491EAE4F3E0628181810E9458
:101A0000D90C8C818F5F8C83DF91CF910895CF9318
:101A1000DF93EC01EAE4F3E0438162818C810E9470
:101A2000D90C8C818F5F8C83DF91CF9108950F93B8
:101A30001F93CF93DF9300D01F92CDB7DEB78C01F9
:101A40008091E30181110AC09E012F5F3F4F40EF5B
:101A50006FEF0E94A10B8A818093E301F8018481DA
:101A6000813051F028F0823061F44091E3010AC0E6
:101A70008091E30140E007C06091E30140E080E035
:101A800003C040E080E060E00E94BE0CF801848169
:101A900090E0019663E070E00E94B93284830F9079
:101AA0000F900F90DF91CF911F910F9108954F925A
:101AB0005F926F927F928F929F92AF92BF92CF92DE
:101AC000DF92EF92FF920F931F93CF93DF9300D09B
:101AD0001F92CDB7DEB7F82EB62EE42E622E90916F
:101AE0004A0390FFB4C0E92FE695AE2FB0E0AE58A0
:101AF000BE4F8C91809351029E7F923061F49E0183
:101B00002F5F3F4F8F2D0E94A10B4B8169818A81EE
:101B10000E94BE0C62C0823019F4E0904D035DC09B
:101B2000863019F4F0904B0358C08930D9F38931CD
:101B300009F053C0E9518E2F8170782E81E0A72CD7
:101B4000A826E695F0E0EC5EF84FC590D490412CC5
:101B5000DD249CE2892E93E0992E60910B014616BC
:101B6000D0F5042D10E00C9DC0010D9D900D1C9D25
:101B7000900D112470E00E94A5325F2C711002C0FC
:101B8000560E01C0561A8091000380FF11C0DF92EB
:101B9000CF921F92AF921F925F921F924F929F928D
:101BA0008F920E9485060FB6F894DEBF0FBECDBFA0
:101BB00080910901080F111D9801220F331F020F98
:101BC000131F9801215B3C4F4E2D6B2D852D0E94DC
:101BD000A10B4394C2CF0E949A0CF0924B03B09297
:101BE0004C03E0924D036620E9F060914A03709146
:101BF0004B0380914C0390914D030E94C40B809144
:101C0000000380FF24C080914D031F928F93809129
:101C10004C031F928F9380914B031F928F9387E009
:101C200093E00CC08091000380FF11C01F92EF92DF
:101C30001F92BF921F92FF9280EE92E09F938F932C
:101C40000E9485060FB6F894DEBF0FBECDBF0F9081
:101C50000F900F90DF91CF911F910F91FF90EF9018
:101C6000DF90CF90BF90AF909F908F907F906F90BC
:101C70005F904F900895EAE4F3E09181282F43812B
:101C8000628188E0890F0C94570D81E00C943B0E23
:101C9000EAE4F3E09181282F4381628188EF890F84
:101CA0000C94570D81E00C94480EEAE4F3E0628155
:101CB00028E0620F08F46FEF282F438181810C9494
:101CC000570D81E00C94550EEAE4F3E0628128E0C0
:101CD000621B08F460E0282F438181810C94570D2A
:101CE00081E00C94640EEAE4F3E0438128E0420FC3
:101CF00008F44FEF282F628181810C94570D81E009
:101D00000C94730EEAE4F3E0438128E0421B08F4EC
:101D100040E0282F628181810C94570D81E00C9462
:101D2000820E20E00C94570DFF920F931F93CF93D8
:101D3000DF93EC01F12C0FEF10E060910B01F61630
:101D4000F0F4809109012F2D30E0280F311DC901D9
:101D5000880F991F280F391F215B3C4F70E0C80185
:101D60000E94B932962F8C8140914D0360914C03B3
:101D7000F99E800D11240E94A10BF394DECF0E94E6
:101D80009A0C9A818C8190FF02C08F5F01C08150B4
:101D90008C83DF91CF911F910F91FF900895AF92A7
:101DA000BF92CF92DF92EF92FF920F931F93CF9348
:101DB000DF93FC01828180FF02C00FEF01C001E0D0
:101DC00010E044E1A42E80910B01181708F043C0E5
:101DD00080910901C12ED12CE601C80FD11DCE0181
:101DE000880F991FC80FD91FC15BDC4F1982188259
:101DF0001A8234E0E32EF12CB12C8091E5018B0D99
:101E000085312CF06A2D0E949732892F05C087FFFB
:101E100003C090910B01890F082E000C990BC81676
:101E2000D90691F480914D038E9DA0018F9D500D98
:101E3000112455954795559547959E0160914C0302
:101E400080914B030E94A10BB00EF1E0EF1AF10854
:101E5000A1F61F5FB8CF0E949A0C8091E501013076
:101E600031F4811102C080910B01815007C090E0D4
:101E7000019660910B0170E00E94B9328093E501F8
:101E8000DF91CF911F910F91FF90EF90DF90CF9056
:101E9000BF90AF900895CF938091090190910A016E
:101EA000891770F4E82FF0E09F01220F331FE20F33
:101EB000F31FE15BFC4F1182108212828F5FF0CF23
:101EC000C0E060910B01C617C0F5EC2FF0E070E0A8
:101ED000CF010E94B93220910901820F2091E401C3
:101EE000022E000C330B90E0E217F307CCF02091A8
:101EF0000601022E000C330B2E173F078CF09C01BD
:101F0000220F331F820F931F9C01215B3C4F409196
:101F10004D0360914C0380914B030E94A10B0BC0B9
:101F2000FC01EE0FFF1F8E0F9F1FFC01E15BFC4FBA
:101F3000118210821282CF5FC4CF0E949A0C20912E
:101F400005018091E401820F8093E40190910601E4
:101F5000920F9093060119165CF4082E000C990B51
:101F600040910B0150E041505109841795071CF036
:101F7000219520930501CF9108958F929F92AF9262
:101F8000BF92CF92DF92EF92FF920F931F93CF9366
:101F9000DF938C01FC014481C42FD0E09E01DE015F
:101FA0000E94FD329B01AC010E9413336B017C0146
:101FB000E0E2F0E0EC1BFD0BA5E5B0E09B01AC011D
:101FC0000E9413334B015C019F01DF010E94F53237
:101FD0009B01AC010E941E339B01AC012C0D3D1DE9
:101FE0004E1D5F1DC501B4010E94CD32C22FD22FFC
:101FF0002A3228F4F3E02F9F900111240DC025E52B
:1020000030E02C1B3109C901880F991F280F391F97
:1020100037FF02C02F5F3F4F35952795C22FC095E0
:10202000F12C85E5E82EED1A80910B01F816C8F425
:10203000F1FC02C08E2D01C08D2F909109012F2D32
:1020400030E0290F311DA901440F551F240F351F02
:10205000215B3C4F4C2F60914C030E94A10BF394E9
:10206000E3CF0E949A0CF8018481811102C091E0B3
:1020700003C0803219F49FEF909304019091040102
:10208000890FF8018483DF91CF911F910F91FF9009
:10209000EF90DF90CF90BF90AF909F908F9008957A
:1020A0000F931F93CF93DF93EC0100E010E080913A
:1020B0000B01282F30E00217130724F59091090136
:1020C0009801290F311DA901440F551F240F351FF9
:1020D000215B3C4F869590E04C81081719071CF452
:1020E000442331F002C0411103C040914D0301C0AF
:1020F00040E060914C0380914B030E94A10B0F5F65
:102100001F4FD5CF0E949A0C8C8190E00196817070
:1021100099278C83DF91CF911F910F9108958F9212
:102120009F92AF92BF92CF92DF92EF92FF920F9366
:102130001F93CF93DF93FC01B280948081E084836E
:1021400000E015E05BE4A52E88248394EE24EA9455
:10215000F12C7BE4C72ED12C80910B01081708F0DD
:102160008FC0C02FD0E01C9FF0011D9FF00D1124E7
:10217000EA51FE4F911003C01382128267C023817F
:10218000222389F1215023833481332319F09A2D9E
:10219000921B01C0922F80914D031C9FF0011D9F47
:1021A000F00D1124EA51FE4F899FC0011124B601A0
:1021B0000E94A5326283211104C0332311F01482DE
:1021C000A38222E02B1508F441C01C9FF0011D9F43
:1021D000F00D1124EA51FE4F80914B0380838091D2
:1021E0004C03818333C00E9472338230914074F576
:1021F00082E08B1530F40E947233B7010E94B9322D
:1022000002C080914B031C9FF0011D9FF00D112413
:10221000EA51FE4F808322E02B1558F40E9472335E
:1022200020914C032695622F70E00E94B932820FF4
:1022300002C080914C031C9FF0011D9FF00D1124E2
:10224000EA51FE4F81831282A38284828091090128
:102250009E01280F311DC901880F991F280F391FB2
:10226000215B3C4F1C9FF0011D9FF00D1124EA5192
:10227000FE4F4281618180810E94A10B0F5F6CCF74
:10228000DF91CF911F910F91FF90EF90DF90CF9052
:10229000BF90AF909F908F900C949A0C60914A03DE
:1022A000669570E04BE050E08CE091E00E94823354
:1022B000892B19F481E0809352020E941F2790938A
:1022C0004B0280934A028091000380FF08C087EC94
:1022D00092E09F938F930E9485060F900F90089530
:1022E000109252028091000380FF08C08EEA92E0B3
:1022F0009F938F930E9485060F900F900895909161
:102300004A0390FF54C09170811102C0926006C0D0
:102310008B3210F0946502C0880F982B90934A037B
:102320006623B1F060914A0370914B0380914C0396
:1023300090914D030E94C40B8091000380FF1BC04D
:1023400080914A0386951F928F938AE894E00BC090
:102350008091000380FF0FC080914A0386951F92F1
:102360008F938CE694E09F938F930E9485060F9045
:102370000F900F900F9060914A03669570E04BE0CC
:1023800050E08CE091E00E948233892B19F00E948A
:10239000701102C00E944E1181E080934D02409165
:1023A0004D0360914C0380914B030C94910E089562
:1023B000682F90914A03969581E0890F8B3208F03F
:1023C00081E00C947F1181E00C94D811682F9091DA
:1023D0004A0396958FEF890F09F48AE20C947F11D6
:1023E00081E00C94E61161E00C947F1180914A0326
:1023F000816080934A038091000380FF0DC01F928B
:1024000081E08F938EEF93E09F938F930E948506D8
:102410000F900F900F900F9080914A0386950C9427
:10242000F31160E00C947F1180915002811160C023
:102430008091000380FF08C08DE295E09F938F9309
:102440000E9485060F900F908091000380FF08C0C6
:1024500087E195E09F938F930E9485060F900F90E0
:102460000E94DF24811110C08091000380FF08C00A
:102470008FEE94E09F938F930E9485060F900F90AC
:102480000E948F250E94D60B0E94C00B60934A03C6
:1024900070934B0380934C0390934D036E7FC1F474
:1024A0008091000380FF08C086EA94E09F938F9399
:1024B0000E9485060F900F900E94D60B0E94C00BC1
:1024C00060934A0370934B0380934C0390934D03A6
:1024D0000E94A60B0E94E60B1092520280914A03C2
:1024E00080FF03C086950E94111281E08093500204
:1024F000089580914A03816080934A03809100038C
:1025000080FF0DC01F9281E08F9385EC93E09F9335
:102510008F930E9485060F900F900F900F908091DF
:102520004A0386950C94111280914A038E7F809302
:102530004A0360914A0370914B0380914C03909140
:102540004D030E94C40B8091000380FF0FC0809157
:102550004A0381701F928F938DE893E09F938F932E
:102560000E9485060F900F900F900F900E9470119F
:102570002FEF80E792E0215080409040E1F700C0CB
:1025800000000C949A0C8091000380FF10C0809191
:102590004A03809581701F928F9385E394E09F9307
:1025A0008F930E9485060F900F900F900F9080914F
:1025B0004A0380FD0C9494120C94F61180914A0306
:1025C0008E7F80934A038091000380FF0CC01F928E
:1025D0001F9283E593E09F938F930E9485060F904F
:1025E0000F900F900F900E9470112FEF80E792E0F4
:1025F000215080409040E1F700C000000C949A0CFC
:102600000F931F93CF93DF9380915202882309F495
:102610009CC080915102E0914A03E695E81BE0934B
:102620004C02823049F4F0E0E05FF94FE491CE2FA4
:10263000D0E003EF1CE059C0863049F4F0E0E35FDE
:10264000F94FE491CE2FD0E007E01DE04EC0893075
:1026500051F4E695F0E0E65FF94FE491CE2FD0E03B
:1026600004E91EE042C08F3051F4E695F0E0E95FE6
:10267000F94FE491CE2FD0E00FEC1EE036C085314B
:1026800049F4F0E0EC5FF94FE491CE2FD0E00BE499
:102690001FE02BC08831D9F0833239F4E2E0F6E054
:1026A000C591D49107E11DE020C08432A9F08532A4
:1026B000C1F48E2F63E00E948B32E92FF0E0E150ED
:1026C000FA4FE491CE2FD0E00FE810E10EC0C8E23F
:1026D000D0E00DEB1FE009C0C4EFD1E000E510E150
:1026E00004C0C0EDD7E00FE81BE080914D028823C5
:1026F00089F010924D020E941F279E01209530956F
:10270000820F931F90934B0280934A0210924F02C4
:1027100010924E0280914A0290914B020E942B2708
:102720008C179D0790F0E0914A02F0914B02CE0F7A
:10273000DF1FD0934B02C0934A028AE492E0F80173
:10274000DF91CF911F910F910994DF91CF911F914C
:102750000F910895882311F0FA0101C0FB0109943B
:10276000CF93DF93C82FD62F0E94610C8C1740F0B7
:102770000E94610C8D1720F4DF91CF910C94E3112E
:102780008C2FDF91CF910C94F3110F931F93CF9364
:10279000FB01C281CC2309F463C08C010E94FE239B
:1027A0008272F801E35CFC45E431F10508F059C0A0
:1027B000EA5AFF4F0C94EF320E94C31206C040EF5A
:1027C00051E163EE71E10E94AA13C0E04AC043EEFA
:1027D00051E160EF71E1F7CF42E55EE065E47EE054
:1027E000F2CF45E45EE062E57EE0EDCF40E75EE0FB
:1027F00061E67EE0E8CF41E65EE060E77EE0E3CFC1
:102800004EE85EE06FE77EE0DECF4FE75EE06EE829
:102810007EE0D9CF44E95CE06DE77CE0D4CF4DE7C2
:102820005CE064E97CE0CFCF81E017C065E082E046
:1028300010C068E086E00DC06EE089E00AC064E187
:102840008FE007C067E185E104C088E106C062E26D
:1028500089E10E94B013B9CF83E20E94F311B5CF92
:10286000C1E08C2FCF911F910F9108950E94DF241A
:10287000811102C00E948F250E94102580938B0336
:10288000282F26952695269530E02430310524F012
:102890008770886180938B0380918B0380FF04C0D5
:1028A00086958695869501C080E00C94B11520919F
:1028B0008B03822F869586958695482F50E043306E
:1028C000510554F48F5F982F990F990F990F822F0C
:1028D0008770892B80938B0380918B038160809319
:1028E0008B030E9414258091000380FF11C080910A
:1028F0008B038695869586951F928F9380E897E047
:102900009F938F930E9485060F900F900F900F90CA
:1029100080918B038695869586950C94B115809150
:102920008B03982F969596959695A1F0915E990FA9
:10293000990F990F8770892B80938B03887F91E083
:1029400009F490E080918B0390FB80F980938B03D6
:102950000E9414258091000380FF11C080918B0399
:102960008695869586951F928F9388E697E09F932C
:102970008F930E9485060F900F900F900F9080917B
:102980008B038695869586950C94B11580918B0363
:1029900080FD1FC0816080938B03813019F489E032
:1029A00080938B0380918B030E94142580910003F8
:1029B00080FF08C080E497E09F938F930E94850674
:1029C0000F900F9080918B038695869586950C9439
:1029D000B115089580918B0380FF14C08E7F809382
:1029E0008B030E9414258091000380FF08C08DE2B4
:1029F00097E09F938F930E9485060F900F9080E041
:102A00000C94B1150895CF93C0918B03C170809140
:102A1000000380FF0CC01F92CF9382E597E09F9345
:102A20008F930E9485060F900F900F900F90CC23EC
:102A300019F0CF910C94EA14CF910C94C614909194
:102A40008B03892F8695869586958F5F8F719770FA
:102A5000843038F4880F880F880F892B80938B037C
:102A600002C090938B0380918B03887F91E009F4DF
:102A700090E080918B0390FB80F980938B030E9400
:102A800014258091000380FF11C080918B038695EF
:102A9000869586951F928F9389E197E09F938F93F8
:102AA0000E9485060F900F900F900F9080918B03DE
:102AB0008695869586950C94B115843008F083E050
:102AC00090918B039770282F220F220F220F922BA9
:102AD00090938B03987F21E009F420E090918B0381
:102AE00020FB90F990938B030C94B1150E945D1517
:102AF00080918B030C9414259C01FB018281882317
:102B000049F12E3BFCE53F07C9F040F42C3BECE5D6
:102B10003E0769F02D3B3C4561F00895203C9CE563
:102B2000390791F070F0213C3C4589F0089583E02D
:102B300001C080E00E94761580E008950E948F1405
:102B4000FBCF0E945714F8CF0E940315F5CF0E94C7
:102B50001F15F2CF81E00895259A2D9808952D989C
:102B60000895CF92DF92EF92FF92CF93C82F8430D7
:102B700050F4811109C0809180008F77809380008C
:102B80000E94AF1506C0C3E08091800080688093EA
:102B900080002C2F30E0AFEFBFEF0E94FD3223E02A
:102BA00030E040E050E00E94CD32B42FA32F922FAE
:102BB0008827492F5A2F6B2F7727CA014C3724E1DA
:102BC000520728F469E070E00E94A53229C0DB01B9
:102BD000CA018A50974DAF4FBF4F6627782F892F74
:102BE0009A2F25EF38E241E050E00E94CD32690192
:102BF0007A01CA01B9010E947B329B01AC01C70175
:102C0000B6010E947B32BB27A92F982F872F0097F0
:102C100021E0A207B10511F0BC0102C06FEF7FEF08
:102C20007093890060938800CF91FF90EF90DF90C0
:102C3000CF90089508950E94AC1582E8809380009B
:102C400089E1809381008FEF9FEF909387008093BD
:102C500086000C9436146A9A2EB12B7F3EB13460F4
:102C60004FB7F894FC01CB01880F991F680F791FAB
:102C70006E0F7F1FE617F70789F0819198E03EB944
:102C8000000000C087FF2EB9880F000000C000C000
:102C900000C02EB900C09A9591F7ECCF4FBF8FE5D9
:102CA00094E00197F1F700C000000895AF92BF9241
:102CB000CF92DF92EF92FF920F931F93CF93DF9308
:102CC0007C015B01C42FD22FFC0182818823F9F0A3
:102CD000409355020E941F27909354028093530201
:102CE00080E28C0F883008F06EC0C77081E001C0B0
:102CF000880FCA95EAF7DF91CF911F910F91FF904E
:102D0000EF90DF90CF90BF90AF900C949F1B80917D
:102D10005502481335C080915302909154020E948D
:102D20002B276C01B701C5010E94E820C816D906FF
:102D300038F510E21D0FCD17B9F080E28C0F883006
:102D400040F4C77081E001C0880FCA95EAF70E947D
:102D5000A61B183058F581E09D2F977001C0880F91
:102D60009A95EAF70E949F1B802F0E948C1B1830B7
:102D700050F5D77081E001C0880FDA95EAF70AC0F4
:102D800080E28C0F8830F8F4C77081E001C0880FB2
:102D9000CA95EAF7DF91CF911F910F91FF90EF90C5
:102DA000DF90CF90BF90AF900C94A61B802FDF9147
:102DB000CF911F910F91FF90EF90DF90CF90BF9038
:102DC000AF900C948C1BDF91CF911F910F91FF90CE
:102DD000EF90DF90CF90BF90AF9008950F939C013C
:102DE000CB01243F4CE5340731F188F4293DFCE563
:102DF0003F07D9F02A3D4CE5340779F1283D3C45A1
:102E0000A9F506E221EE41EE68ED7CE52BC0263FF8
:102E1000FCE53F07E1F0A8F0273F3C4539F507E224
:102E200025EE46EE67EF7CE51DC007E225EE45EE98
:102E300069ED7CE517C006E221EE40EE64EF7CE52B
:102E400011C007E225EE44EE65EF7CE50BC006E21B
:102E500021EE42EE66EF7CE505C008E221E045EE9A
:102E60006AED7CE50E94561680E008C0FC01828174
:102E7000882319F01092550201C081E00F91089546
:102E8000CF93DF93EC01FB018281882309F41FC1FA
:102E9000C230FCE5DF0708F41BC1C6319CE5D90749
:102EA00038F09E012B5F3C452930310508F010C1F8
:102EB0000E94F2249093910380939003C031ECE53B
:102EC000DE0709F4C3C008F041C0C8308CE5D8075C
:102ED00009F49AC0F0F4C430ECE5DE0709F487C0C9
:102EE00068F4C2308CE5D80709F477C0C330DC45FC
:102EF00009F0E3C080919003826076C0C630ECE5B3
:102F0000DE0709F46EC008F07BC0809190038860F2
:102F10006BC0CC308CE5D80709F485C068F4CA30A2
:102F2000ECE5DE0709F474C008F079C00E942F1E9A
:102F300080919003806858C0CE308CE5D80709F4A2
:102F400076C008F07FC0809190038BC0CC3FECE549
:102F5000DE0709F44FC018F5C3318CE5D80709F432
:102F60007DC078F4C131ECE5DE0709F473C0C231ED
:102F7000DC4509F0A2C00E942F1E809190038F773C
:102F800033C0C5318CE5D80709F472C008F486C097
:102F9000CB3FDC4509F091C0809191033EC0C11543
:102FA000FDE5DF0709F45FC058F4CE3F9CE5D90783
:102FB00009F444C008F43FC08091910382602DC0A1
:102FC000C230FDE5DF0709F475C008F45DC0C33009
:102FD000DD4509F072C080E06EC080919003816091
:102FE00003C08091900380618093900366C08091BC
:102FF000900311C0809191038260809391035DC022
:10300000809190038062F0CF809190038064ECCF38
:103010008091900388608460E7CF8160EECF8091DB
:1030200090038E7FE1CF809190038D7FDDCF8091E3
:103030009003877FD9CF8091910318C0809191032D
:103040008D7FDBCF809190038F7ECECF80919003D8
:103050008F7DCACF809190038F7BC6CF80919003E4
:10306000877F8B7FC1CF809191038D7F8E7FC5CF6E
:103070008091900382FB222720F991E0922790FB18
:1030800082F990FB83F9B0CF80919103982F9095AE
:1030900091708E7F892B90FB81F9AFCF0E942F1EFC
:1030A0008091900387FB222720F991E0922790FBE3
:1030B00087F99ACF81E00E949125809190039091A9
:1030C00091030E9403250E942F1E80E001C081E031
:1030D000DF91CF910895CF93DF9386319C4541F5E1
:1030E000EB010E94FE23982F8A81209117013091D5
:1030F0001801882379F09A7A81E009F480E08093BE
:103100005602911102C069E201C065E3C9010E9443
:103110004E260AC080915602811102C069E201C0A8
:1031200065E3C9010E9459260E944C2480E001C039
:1031300081E0DF91CF91089590935C0280935B02D0
:103140000895E0915B02F0915C02309721F00190CC
:10315000F081E02D099480E00895EF92FF921F9393
:10316000CF93DF93FC01A0915B02B0915C021097BA
:1031700009F442C080912B01882341F08091900393
:1031800087FF04C08081818385E08083EF011296F0
:10319000ED91FC911397CE0109958091000382FF78
:1031A0002BC080FF04C080EA98E00E94EC0518E084
:1031B0008AE9E82E88E0F82E8091000380FF0BC09A
:1031C00088811F928F93FF92EF920E9485060F9045
:1031D0000F900F900F90115021961111EDCF80910B
:1031E000000380FF09C088E998E0DF91CF911F912B
:1031F000FF90EF900C94EC05DF91CF911F91FF9021
:10320000EF900895E0915B02F0915C02309739F005
:1032100022E0DC012C930480F581E02D09940895CF
:103220002091590230915A022817390771F0909372
:103230005A0280935902E0915B02F0915C02309750
:1032400021F00680F781E02D09940895209157021E
:10325000309158022817390771F0909358028093E3
:103260005702E0915B02F0915C02309721F00084FC
:10327000F185E02D0994089585B7806885BF85B7ED
:10328000806885BF089581E008950C9443190895DE
:103290000C9447190C9447190C944A190C9447192B
:1032A0000C944E190C9447190E943C190E94521913
:1032B0000C9450190E9416270E94020A0E949A2715
:1032C0000E9436140E9414120C944C19CF93C82FEC
:1032D0008091000382FF1EC080FF04C089EB98E04C
:1032E0000E94EC058091000380FF0CC01F92CF93D9
:1032F00084EB98E09F938F930E9485060F900F9028
:103300000F900F908091000380FF04C082EB98E043
:103310000E94EC058C2FCF910C9477077F928F92AF
:103320009F92AF92BF92CF92DF92EF92FF920F9354
:103330001F93CF93DF93CDB7DEB72A970FB6F894DC
:10334000DEBF0FBECDBF0E9448190E9447190E94E0
:10335000340A0E944519811111C08FEF89838A8335
:103360001B820E941F278160782F9D838C83498157
:103370005A816B818D810E94461A4FC04EE5A42E62
:1033800042E0B42E00E010E0702E802F0E949009E1
:103390006C01F501819091905F0188269926811436
:1033A000910431F40F5F1F4F0530110569F7D5CF38
:1033B0008091000381FD0E94990980E0EE24E3944E
:1033C000F12C94012E213F21232B09F18E837F8242
:1033D000CE20DF2081E0CD2809F480E088870E949C
:1033E0001F278160782F9A8789874E815F81688542
:1033F0008A850E94461A000F111FF801E25AFD4FFC
:1034000080819181E826F926F182E08206C08F5FF3
:10341000EE0CFF1C8031A9F6C5CF0E9400130E945C
:103420001A160E94CB290E94A11890915D0289175B
:10343000C9F00E94A11880935D022A960FB6F894F5
:10344000DEBF0FBECDBFDF91CF911F910F91FF90D7
:10345000EF90DF90CF90BF90AF909F908F907F9034
:103460000C9466192A960FB6F894DEBF0FBECDBF36
:10347000DF91CF911F910F91FF90EF90DF90CF9050
:10348000BF90AF909F908F907F900895CF93DF93E0
:10349000CDB7DEB72B970FB6F894DEBF0FBECDBF0A
:1034A0004F83588769877A878B87DE01119686E07C
:1034B000FD0111928A95E9F785E0FE0137960190AA
:1034C0000D928A95E1F749815A816B817C818D81CA
:1034D0009E810E94EB202B960FB6F894DEBF0FBEA4
:1034E000CDBFDF91CF910895FC01808191810E9431
:1034F000BF230895CF93882309F4A4C0C82F82382E
:10350000C1F40E94A11881FD9DC069E3809117015B
:10351000909118010E944E260E944C242FEF81EEBC
:1035200094E0215080409040E1F700C0000069E342
:1035300019C0833801F50E94A11880FD83C063E59E
:1035400080911701909118010E944E260E944C24F0
:103550002FEF81EE94E0215080409040E1F700C0D1
:10356000000063E580911701909118010E9459268F
:10357000CF910C944C248438C1F40E94A11882FD90
:1035800061C067E480911701909118010E944E2656
:103590000E944C242FEF81EE94E021508040904017
:1035A000E1F700C0000067E4DDCF8CEF8C0F813ABB
:1035B000D0F46C2F80911701909118010E94AC25D6
:1035C000882349F06C2F80911701909118010E9477
:1035D00059260E944C246C2F80911701909118015C
:1035E0000E944E26C5CF80E28C0F883048F4C77009
:1035F00081E001C0880FCA95EAF70E940124B8CF84
:10360000EBE5EC0FE33040F4F0E0E553FE4F808152
:1036100090E0CF910C941019E8E5EC0FE73150F4ED
:10362000F0E0EE0FFF1FE356FE4F80819181CF91B6
:103630000C942619C03F30F08C2F0E943E28CF9169
:103640000C942B29CF910895882309F464C0823803
:1036500079F40E94A11881FF5EC069E3809117018F
:10366000909118010E944E260E944C2469E310C0DC
:103670008338B1F40E94A11880FF4DC063E58091AA
:103680001701909118010E944E260E944C2463E578
:1036900080911701909118010E9459260C944C2496
:1036A000843879F40E94A11882FF35C067E48091C4
:1036B0001701909118010E944E260E944C2467E445
:1036C000E7CF9CEF980F913A10F4682FE1CF90E28A
:1036D000980F983050F4877091E001C0990F8A9547
:1036E000EAF7892F0E940724D9CF9BE5980F9330E2
:1036F00020F480E090E00C94101998E5980F973131
:1037000020F480E090E00C942619803F20F00E9485
:10371000A6280C942B290895CF93C82F0E947A1ABB
:10372000C93349F42FEF87EE93E021508040904059
:10373000E1F700C000008C2FCF910C94241B88234C
:1037400021F00E9401240C944C240895882321F038
:103750000E9407240C944C240895CF92DF92EF929C
:10376000FF920F931F93CF93DF937C01062FC72FF8
:10377000FC01158112951F70D281D1110E941E2467
:103780000E94F723882399F0DD2389F08C2F807F16
:10379000803421F080E2800F883048F082E00E947F
:1037A00096240E94F72391E0D82ED92601C0D12C6F
:1037B000CC2EC2948FE0C8228C2D90E0FC01E659FB
:1037C000FF4F0C94EF328C2F807FCF70882311F045
:1037D000C295C07FDD2399F0CC2309F48DC180E22E
:1037E000800F883010F0011104C08C2F0E9401243A
:1037F00003C08C2F0E9411240E944C247DC1802F75
:103800000E94241BCC2309F49CC180E2800F8830E5
:1038100010F0011104C08C2F0E94072403C08C2FCC
:103820000E9417240E944C248CC18C2F807FCF7063
:10383000803211F0C295C07F002319F00130C9F029
:1038400022C0DD2371F0112341F0113031F40E94C8
:1038500031248C2B0E94392474C10E9431248C2B7A
:103860001DC0112319F0113009F46BC10E944224CC
:1038700025C0DD2321F0163008F063C10EC01530DD
:1038800008F05FC11BC0DD2361F0112331F0F701A7
:10389000858180FF31C18F7085838C2F0E949F1B93
:1038A00050C1112359F0093309F037C1FFEF27EE5A
:1038B00083E0F15020408040E1F72DC18C2F0E9421
:1038C000A61B3FC18C2F86958695837019F0813099
:1038D00061F037C1DD2321F0802F9C2F937002C04F
:1038E00080E090E00E94101934C1DD2321F0802F88
:1038F0009C2F937002C080E090E00E94261929C19D
:10390000802FDD2319F00E943E2802C00E94A628C5
:103910000E942B291EC18C2F837009F045C0D11144
:1039200014C1402F429546954770440F440F602FB5
:103930006F70862F90E0A0E0B0E0042E04C0880FE6
:10394000991FAA1FBB1F0A94D2F704FF10C00FE0F3
:1039500010E020E030E004C0000F111F221F331FD1
:103960004A95D2F7009510952095309503C000E058
:1039700010E09801C695C695C370BC01CD01602BBF
:10398000712B822B932BC23049F058F4C13019F0BF
:103990000E943C22DAC00E942A22D7C00E944E22F6
:1039A000D4C00E942822D1C0DD2319F08C2F817051
:1039B00001C08695882309F4C8C0402F42954695DA
:1039C0004770440F440F602F6F70862F90E0A0E087
:1039D000B0E0042E04C0880F991FAA1FBB1F0A94D1
:1039E000D2F704FF10C00FE010E020E030E004C088
:1039F000000F111F221F331F4A95D2F70095109513
:103A00002095309503C000E010E09801C695C6955A
:103A1000C370BC01CD01602B712B822B932BC23064
:103A200049F058F4C13019F00E9401238EC00E9461
:103A3000EF228BC00E94132388C00E94622285C09F
:103A4000CF70DD2339F08C2F0E948822802F0E94B6
:103A50009F1B7BC0802F0E94A61B8C2F0E94A92237
:103A600074C0023F01F128F4003F41F0013FA1F092
:103A70003FC0033FF9F0043F39F13AC0DD2341F084
:103A8000153008F05EC08C2F8F710E94CE2259C075
:103A9000163008F056C0F7CFDD2339F08C2F8F7128
:103AA0000E9488224EC0DD23C9F38C2F8F710E94A3
:103AB000A92247C0DD2329F08C2F8F710E94732229
:103AC00040C00E946E223DC0DD2349F0CF718C2F93
:103AD0000E94882263E08C2F0E94812432C081E002
:103AE0000E949624123068F182E00E94962429C038
:103AF000DD2331F0112391F2802F0E947A1A21C028
:103B0000112399F2093349F49FEFE7EEF3E0915066
:103B1000E040F040E1F700C00000802F0E94241B2D
:103B200010C04C2F4F70602FC7010E9480070E9469
:103B300099210FC04C2F4F70602FC7010E9483073F
:103B400008C088EF8C0D843020F40E94A1180E94D8
:103B50007707DD20C9F00E94F32380FD15C0F7012F
:103B600012820E94ED230E948822C7010E94E51D57
:103B70000E94ED23DF91CF911F910F91FF90EF9065
:103B8000DF90CF900C94A922DF91CF911F910F91DC
:103B9000FF90EF90DF90CF9008950F931F93CF93F6
:103BA000DF93EC01688179818A810E94CA238C01AC
:103BB0000E9425230E941622B801CE010E94AD1B4F
:103BC000DF91CF911F910F910895CF93DF93EC0177
:103BD000988189812B813C81232B31F08F3F31F4F7
:103BE00081E09F3F19F403C081E001C080E080FDC7
:103BF00019C0CE010E940C0781110CC00E94F7234E
:103C0000882381F08A81882369F082E0DF91CF9157
:103C10000C949624CE010E94CD1DCE01DF91CF9150
:103C20000C94E306DF91CF9108950E941E240E9418
:103C30002E240E944C240E94DE2A0E942B2980E020
:103C400090E00E94101980E090E00C942619809179
:103C50001701909118010E9464260C94151E0E9471
:103C60000E240C94271EE92FE295EF704E2F50E0A2
:103C7000FA013297EE30F105B0F4E658FF4F0C949C
:103C8000EF32803F91F018F4883E68F40EC0843F14
:103C900051F40BC0883E48F0813F29F406C093FBE5
:103CA000882780F9089580E0089581E008950E94B2
:103CB000BF230E94331E0895CF93DF9300D000D01E
:103CC0001F92CDB7DEB70F900F900F900F900F900F
:103CD000DF91CF910895CF93DF9300D000D000D033
:103CE000CDB7DEB726960FB6F894DEBF0FBECDBFB8
:103CF000DF91CF9108951F93CF93DF93C091690215
:103D000016E080916A02C81799F0D0E01C9FF0017C
:103D10001D9FF00D1124E559FD4F408151816281B5
:103D20007381848195810E946B1E2196C770E9CFB3
:103D3000DF91CF911F91089540919B0250919C0279
:103D400060919D0270919E0280919F029091A002CD
:103D50000C946B1E0F931F93CF93DF938091A0025F
:103D600082958F7009F05DC080919D02882309F4CF
:103D700058C08091690210916A0260919B02709113
:103D80009C02C0919E02D0919F0291E06F3F09F08A
:103D900090E0292F06E0811709F443C0209721F015
:103DA0007F3F21F030E003C031E001C0322F90E0CE
:103DB00030FD34C0089FF001099FF00D1124DF0190
:103DC000A559BD4F11963C911197371327C03C91CF
:103DD000361324C012963C91129731111FC01396CE
:103DE0004D915C9114974C1B5D0B483C5105B0F410
:103DF0008091A0028F7080618093A002E059FD4FF6
:103E000080818F70806180838BE992E00E94E51D44
:103E1000DF91CF911F910F910C947B1E01968770BB
:103E2000BACFDF91CF911F910F9108959F92AF92DA
:103E3000BF92CF92DF92EF92FF920F931F93CF9397
:103E4000DF93CDB7DEB761970FB6F894DEBF0FBE34
:103E5000CDBF8C0185E0F801DE011D9601900D9229
:103E60008A95E1F7F80140815181E28090919B02AF
:103E700060919C0220919E0230919F022115310594
:103E800031F06F3F31F481E09F3F19F403C081E0CE
:103E900001C080E0F82FF1709F2E80FD46C1F8012F
:103EA000A380B4808BE9C82E82E0D82EF0909D02CA
:103EB000F501E21BF30BFF2009F4DFC08091A002A3
:103EC000E83CF10508F09BC0282F207F09F052C084
:103ED000561313C0491311C0FE2CE1100EC08F7091
:103EE00080618093A0020E949C1EC6010E94E51D75
:103EF0008091A002F801858358C1AB2831F05F3F63
:103F000031F481E04F3F19F403C081E001C080E04B
:103F100080FD03C081E08E2502C080E090E0F82F94
:103F2000F170FF2E80FF1CC08091690220916A020F
:103F300036E0821709F417C190E0389FF001399FED
:103F4000F00D1124E559FD4F6181561306C06081C3
:103F5000461303C06281E61203C001968770E9CF61
:103F6000FE2CEE2009F421C18091A0028160809393
:103F7000A0025AC0561306C0491304C0E11002C083
:103F8000F8019FC04D875E878D859E850E94571ED4
:103F9000882379F1EE2069F12091A002822F829589
:103FA0008F7090E0029774F080919B0290919C0238
:103FB00098878F831986BB86AA862C87CE010796A1
:103FC0000E94E51D86E0F801ABE9B2E001900D9298
:103FD0008A95E1F70E94AA1E0E949C1E0DC05617EA
:103FE00029F14D875E878D859E850E94571E811120
:103FF0002CC0C8010E94E51DFF24F394D6C0282FD1
:10400000207F69F77A2DB98AA88A6E2D89890E9446
:104010005C1E8BE992E00E94E51D86E0F60111929C
:104020008A95E9F70E949C1EF12CBFC04913D9CF95
:10403000E110D7CFF8018583C8010E94E51D86E015
:10404000F60111928A95E9F7B0C0EE2091F2209125
:10405000A002822F82958F7090E002970CF4B2CF6D
:1040600080919B0290919C029A8389831B82BD82DE
:10407000AC822E83CE010196A3CFE83CF10508F077
:1040800047C0FE2CEE2009F4B4CF561330C04913BC
:104090002EC02091A00220FD21C0822F82958F701A
:1040A000482F50E041155105C9F0F80125834F30E4
:1040B000510541F08F5F982F9295907F822F8F70DE
:1040C000892B8583C8010E94E51D86E0F801ABE9D4
:1040D000B2E001900D928A95E1F742C086E0F801C6
:1040E000ABE9B2E001900D928A95E1F75EC04D8791
:1040F0005E878D859E850E94571E811163CF8091BA
:10410000A00281608093A002C8010E94E51D4DC0FD
:104110007A2DB98AA88A6E2D89890E945C1E86E054
:10412000F60111928A95E9F71BC0EE2009F461CFE0
:104130004D875E878D859E850E94571EF82E8823A9
:1041400009F457CF86E0F801ABE9B2E001900D9297
:104150008A95E1F78BE992E00E94741A0E94AA1EE8
:104160000E949C1E22C04D875E878D859E850E9481
:10417000BF23292F22952F70223028F49F7039F009
:10418000811105C00BC0243028F49F7049F4805E73
:10419000883020F0C8010E94E51D9F2CF92C05C035
:1041A000F8019581907F99F7F9CF8F2D61960FB621
:1041B000F894DEBF0FBECDBFDF91CF911F910F915D
:1041C000FF90EF90DF90CF90BF90AF909F900895B9
:1041D00088EC90E008951F93CF93DF93CDB7DEB7BF
:1041E0002C970FB6F894DEBF0FBECDBF4F83588714
:1041F00069877A878B879C87CE0107960E94161F56
:104200008823D1F09F8188852A853B85232B31F037
:104210008F3F31F481E09F3F19F403C081E001C07A
:1042200080E080FD47C04F81588569857A858B8500
:104230009C850E946B1E3EC086E0FE013796DE0123
:10424000119601900D928A95E1F7FF81E8856A85C4
:104250007B856115710531F0EF3F31F481E0FF3F5F
:1042600019F403C081E001C080E080FD23C02091EB
:104270006A0230E0C901019687709927409169026E
:1042800050E084179507F1F1F983EA837D836C830D
:1042900096E0929FD001939FB00D1124A559BD4F78
:1042A000FE01319601900D929A95E1F780936A0292
:1042B0000E947B1E16E08091690290916A02891724
:1042C00071F1189FC001112485599D4F0E94161F3E
:1042D000882329F1E09169021E9FF0011124E5591C
:1042E000FD4F4081518162817381848195810E945B
:1042F0006B1E8091690290E00196877099278093E8
:104300006902D9CF0E942F1E10926A021092690290
:10431000EBE9F2E086E0DF011D928A95E9F72C9641
:104320000FB6F894DEBF0FBECDBFDF91CF911F91C6
:104330000895EF92FF920F931F93CF93DF938C0119
:10434000892B09F46CC0F12CEE24E394E80121964A
:10435000F8018491843740F4843008F051C08130F2
:1043600081F0823019F15BC0853709F444C0A8F1AF
:104370009CE7980F903708F052C08F770E94241B5B
:1043800041C00E5F1F4FFE01849190E2980F98305C
:1043900050F48770FE2D01C0FF0F8A95EAF78F2F2A
:1043A0000E94212414C00E947A1A2DC00E5F1F4F54
:1043B000FE01849190E2980F983060F48770FE2D92
:1043C00001C0FF0F8A95EAF78F2F0E9427240E94D1
:1043D0004C2419C00E94241B16C00E5F1F4FFE0103
:1043E000C491CC2381F08FE99FE00197F1F700C0E1
:1043F0000000C150F6CF0E5F1F4FFE01F49003C0C6
:104400000E947A1A8E018F2D882309F49FCFEFE93D
:10441000FFE03197F1F700C000008150F5CFDF9148
:10442000CF911F910F91FF90EF90089508950895F7
:104430000C9417220C9418220E941A226093D7021F
:104440007093D8028093D9029093DA020C94151ECF
:104450000C941C220F931F930091D7021091D80245
:104460002091D9023091DA02602B712B822B932B91
:104470001F910F910C941C220F931F930091D70250
:104480001091D8022091D9023091DA026023712371
:10449000822393231F910F910C941C220F931F933F
:1044A0000091D7021091D8022091D9023091DA02FE
:1044B00060277127822793271F910F910C941C224C
:1044C0000C9417220E9460226093D3027093D4024E
:1044D0008093D5029093D6020C94151E60E070E094
:1044E000CB010C9462220F931F9341E050E060E0F7
:1044F00070E08A019B0104C0000F111F221F331FAF
:104500008A95D2F7C901B8011F910F910C946222CC
:104510000F931F9341E050E060E070E004C0440F4F
:10452000551F661F771F8A95D2F78091D30290910D
:10453000D402A091D502B091D6028A019B01082B2A
:10454000192B2A2B3B2BC901B8011F910F910C94F9
:1045500062220F931F9341E050E060E070E004C0DE
:10456000440F551F661F771F8A95D2F740955095C7
:10457000609570958091D3029091D402A091D5025C
:10458000B091D6028A019B01082319232A233B23D9
:10459000C901B8011F910F910C9462220F931F93D0
:1045A00041E050E060E070E004C0440F551F661F1A
:1045B000771F8A95D2F78091D3029091D402A0916F
:1045C000D502B091D6028A019B01082719272A2714
:1045D0003B27C901B8011F910F910C9462220F93E0
:1045E0001F930091D3021091D4022091D5023091F3
:1045F000D602602B712B822B932B1F910F910C9461
:1046000062220F931F930091D3021091D402209144
:10461000D5023091D60260237123822393231F9108
:104620000F910C9462220F931F930091D30210916B
:10463000D4022091D5023091D602602771278227BB
:1046400093271F910F910C946222089520E1929F6D
:10465000800D1124E82FE695E695E695877051E0E8
:1046600001C0550F8A95EAF785E0E89FF001112413
:10467000EF55FD4F20E030E070E04081CB01022E8D
:1046800002C0969587950A94E2F7817081958427F8
:104690008523842781932F5F3F4F2530310569F7AC
:1046A000089520E1929F800D1124682F66956695EC
:1046B0006695982F977085E0689FB001112440E0BF
:1046C00050E080E0FB01E40FF51FEF55FD4F208126
:1046D00030E0092E02C0369527950A94E2F7217042
:1046E0003327042E01C0220F0A94EAF7822B4F5F72
:1046F0005F4F4530510531F70895BF92CF92DF9259
:10470000EF92FF920F931F93CF93DF938C01C09092
:10471000D302D090D402E090D502F090D6028091DE
:10472000D7029091D802A091D902B091DA02C82A9A
:10473000D92AEA2AFB2ACFE1D0E0D701C6010C2E04
:1047400004C0B695A795979587950A94D2F780FDF2
:1047500004C0219790F7B12C07C0BC2EB8018C2F54
:104760000E94A1070197A9F38B2DDF91CF911F9193
:104770000F91FF90EF90DF90CF90BF900895CF936F
:10478000DF93EC010E947D23BE010E94A107DF910F
:10479000CF9108951F93CF93DF93EB01909168021F
:1047A000992321F0CB010E94BF2313C0882349F035
:1047B000CB010E947D23182F682FCE010E94262353
:1047C00004C0CB010E945123182FBE01812F0E94EB
:1047D000A107DF91CF911F9108958091DB0285950C
:1047E0008595859508958091DB0287700895909155
:1047F000DB02977081E009F480E008958091FF0268
:1048000008959091FF02892B8093FF02089580956F
:104810009091FF0289238093FF0208951092FF0276
:1048200008959091FE02892B8093FE020895809551
:104830009091FE0289238093FE0208951092FE0259
:1048400008959091FD02892B8093FD020895809533
:104850009091FD0289238093FD0208951092FD023C
:1048600008958091DC02089508950C9434240C94EA
:1048700035249091DC02981721F08093DC020C948F
:10488000372408958091DC02882329F01092DC02FD
:1048900080E00C9437240895E0911701F0911801FD
:1048A0008091FF028083E0911701F09118019081BF
:1048B0008091FE02892B8083E0911701F09118010D
:1048C00090818091FD02892B80838091DC02882376
:1048D00081F0E0911701F09118019081892B80837C
:1048E00080911701909118010E94962581110E94D4
:1048F000422480911701909118010C94AD180C94EA
:10490000342498E0899F90011124262B2093DB0208
:104910000E9488228091DB028595859585950C946F
:104920007F241092DB0280E00C947F242091DB0234
:10493000809582238093DB02982F977079F430E082
:10494000482F082E000C550B2417350739F0859594
:10495000859585950E94A9220C94912408959093A1
:10496000DF018093DE0108958295982F937344E0D0
:10497000949F900111248C7C86958695282B822FFC
:104980008575880F2A7A2695822B0895CF93DF9319
:10499000D92F0E94B424C82F8D2F0E94B4242C2F0D
:1049A00030E0322F2227A901482BCA01DF91CF9195
:1049B00008956FEF7FEF80E090E00C94C13380E0CA
:1049C00090E00E949D3321E08C3E9E4F09F020E054
:1049D000822F089582E090E00C948F3383E090E082
:1049E0000C948F33CF9384E090E00E948F33C82FD4
:1049F00081E290E00E948F332C2F30E0A901582BE8
:104A0000CA01CF910895CF93C92F682F84E090E019
:104A10000E94A3336C2F81E290E0CF910C94A333DA
:104A200086E090E00C948F33682F86E090E00C9441
:104A3000A333AB01BC018FE090E00C94B533AB0124
:104A4000BC0183E190E00C94B53360E070E0CB01F1
:104A50000C941F2560E070E0CB010E9419250C9496
:104A600025256CEE7EEF80E090E00E94C13360E08F
:104A700082E090E00E94A33360E083E090E00E9437
:104A8000A3331092D7021092D8021092D90210923A
:104A9000DA0260E084E090E00E94A33360E081E20B
:104AA00090E00E94A33360E085E090E00E94A33391
:104AB00060E086E090E00E94A3336FEF87E090E033
:104AC0000E94A33340E050E0BA0188E090E00E94E9
:104AD000B53360E08DE090E00E94A33340E050E009
:104AE000BA0188E190E00E94B53360E087E190E090
:104AF0000E94A33340E050E0BA018CE190E00E94B4
:104B0000B53360E080E290E00E94A33340E050E0E3
:104B1000BA0188E190E00E94B5330C942A250C94E8
:104B20003125682F8EE090E00C94A333FC0132967F
:104B300080912B01882331F08091900387FF02C080
:104B40009EE101C096E080E0915028F0219122235F
:104B5000D9F38F5FF9CF0895662351F120912B018E
:104B60002223E9F02091900327FF19C0462F469594
:104B7000469546954E31E0F4677021E030E002C082
:104B8000220F331F6A95E2F7FC01E40FF11D8281C9
:104B900090E02823392381E0232B69F409C0FC012C
:104BA000329608962191621729F0E817F907D1F794
:104BB00080E0089581E008959C01FC0132969FEF0A
:104BC00080E04191461789F09F3F19F4411101C0DF
:104BD000982F8F5F8630A9F79F3F39F0F901E90FD1
:104BE000F11D97FDFA956283089508959C012A5F4F
:104BF0003F4FFC014281461301C012820196821789
:104C00009307B9F70895262F2695269526952E31D8
:104C100070F4FC01E20FF11D677021E030E001C08B
:104C2000220F6A95EAF78281282B228308958091CA
:104C3000000380FF0CC01F926F938AEE98E09F9351
:104C40008F930E9485060F900F900F900F900895FC
:104C5000262F2695269526952E3178F4FC01E20F15
:104C6000F11D677021E030E001C0220F6A95EAF77C
:104C7000209582812823228308958091000380FF5C
:104C80000CC01F926F938CEC98E09F938F930E94BF
:104C900085060F900F900F900F90089520912B0193
:104CA000222329F02091900327FD0C9403260C94D5
:104CB000DC2520912B01222329F02091900327FD50
:104CC0000C9428260C94F62520912B01FC01329699
:104CD000222331F08091900387FF02C08EE101C052
:104CE00086E0DF011D928A95E9F7089508950C94F6
:104CF00076260C947626CF930E9479260E94340A59
:104D00000E947726C0E08C2F0E949009892B29F4FD
:104D1000CF5FC530C1F780E001C081E0CF91089539
:104D20000C9476260C9490260E94922680919603ED
:104D3000843009F43CC01092010320E488E190E043
:104D40000FB6F894A895809360000FBE2093600082
:104D500080E00E94B11580E00E9477070E947011E8
:104D60008091020381110AC081E080930203809147
:104D70004A038170809303030E94DE120E949226F0
:104D800083B7817F846083BF83B7816083BF78945A
:104D9000889583B78E7F83BF0FB6F894A8958091CE
:104DA0006000886180936000109260000FBE0895DB
:104DB0000C9476260E942F1E0E9436140E94A11881
:104DC0000E947707109202038091030381110E94D1
:104DD00079120E944E110C94D8261F920F920FB692
:104DE0000F9211248F939F93AF93BF9380910103F0
:104DF000811113C080918C0390918D03A0918E033B
:104E0000B0918F034196A11DB11D80938C039093A7
:104E10008D03A0938E03B0938F03BF91AF919F91A9
:104E20008F910F900FBE0F901F90189582E084BD58
:104E300093E095BD9AEF97BD80936E0008952FB7CC
:104E4000F89480918C0390918D03A0918E03B09182
:104E50008F032FBF08959C014FB7F89480918C0366
:104E600090918D03A0918E03B0918F034FBF821B51
:104E7000930B089578941F920F920FB60F921124FE
:104E80008F939F93AF93BF9380918C0390918D03E9
:104E9000A0918E03B0918F030196A11DB11D809347
:104EA0008C0390938D03A0938E03B0938F03BF91D7
:104EB000AF919F918F910F900FBE0F901F901895FB
:104EC00081E08093E00080E28093D8001092C900D6
:104ED0008FE19EE40197F1F700C0000087E090EBBE
:104EE000DC0180939F039093A003A093A103B09350
:104EF000A2039CE088E10FB6F894A8958093600027
:104F00000FBE90936000FFCF0C94D9240E94340A06
:104F10008FE39CE90197F1F700C000000E94340A7A
:104F200080E00E94900980FF04C00E9484270C94B6
:104F3000602708950E94DF24811102C00E948F25FE
:104F40000E94EA24809300030E94F224909391032C
:104F5000809390030E94EE24682F70E080E090E040
:104F60000E9428226091D3027091D4028091D502D0
:104F70009091D6020C94602280910A0380FF0BC0AE
:104F800060911E0185E0689FB001112475956795B9
:104F9000759567952BC081FF09C060911E0185E062
:104FA000689FB00111247595679520C082FF07C0E6
:104FB00060911E0185E0689FB001112417C0909197
:104FC00009039923D1F060911D01961788F720916C
:104FD0001E0185E0289F90011124929FA001939FBC
:104FE000500D112470E0CA010E94B9326038710579
:104FF00040F46115710519F406C065E070E0862F74
:1050000008958FE7089581E0089580910A0380FF55
:1050100008C060911A0170E0759567957595679560
:1050200021C081FF06C060911A0170E075956795F7
:1050300019C082FF04C060911A0170E010C0909105
:105040000803992399F0609119019617A0F78091B0
:105050001A01899FC001112470E00E94B9326038A2
:10506000710540F46115710519F406C061E070E046
:10507000862F08958FE7089581E00895803F21F4F9
:105080000E94BC27819504C0813F29F40E94BC275F
:1050900080930E030895823F21F40E94BC278195DE
:1050A00004C0833F29F40E94BC2780930D03089518
:1050B000893F19F40E94052805C08A3F31F40E94F7
:1050C0000528819580930F0308958B3F21F40E945A
:1050D0000528819504C08C3F29F40E9405288093FF
:1050E00010030895843F21F480910C03816017C060
:1050F000853F21F480910C03826011C0863F21F42A
:1051000080910C0384600BC0873F21F480910C03D5
:10511000886005C0883F31F480910C0380618093E2
:105120000C0308958D3F21F480910A0381600BC028
:105130008E3F21F480910A03826005C08F3F29F4DD
:1051400080910A03846080930A030895803F39F4B4
:1051500080910E0387FF6AC010920E0367C0813FE3
:1051600029F480910E031816BCF360C090910D03D2
:10517000823F29F497FF5AC010920D0357C0833F16
:1051800019F41916CCF352C090910F03893F31F4F2
:1051900019160CF04BC010920F0348C08A3F19F447
:1051A00097FF44C0F8CF8B3F39F48091100387FFFD
:1051B0003DC0109210033AC08C3F29F48091100337
:1051C0001816BCF333C0843F21F480910C038E7F0A
:1051D00017C0853F21F480910C038D7F11C0863F5D
:1051E00021F480910C038B7F0BC0873F21F48091C9
:1051F0000C03877F05C0883F31F480910C038F7EBC
:1052000080930C0313C08D3F21F480910A038E7F9D
:105210000BC08E3F21F480910A038D7F05C08F3F24
:1052200029F480910A038B7F80930A0380910D03F8
:10523000811106C080910E03811102C010920903F2
:1052400080910F03811106C080911003811102C06B
:105250001092080308958091000383FF7EC08FE2BF
:1052600099E00E94EC0580910C031F928F938AE2D3
:1052700099E09F938F930E94850688E299E00E94AF
:10528000EC0580910D03282F082E000C330B3F9363
:105290008F9385E299E09F938F930E94850683E226
:1052A00099E00E94EC0580910E03282F082E000C37
:1052B000330B3F938F9380E299E09F938F930E94EB
:1052C00085068EE199E00E94EC0580910F03282F5E
:1052D000082E000C330B3F938F938BE199E09F9343
:1052E0008F930E94850689E199E00E94EC058091E8
:1052F0001003282F082E000C330B3F938F9386E169
:1053000099E09F938F930E94850683E199E00E9424
:10531000EC05809109031F928F9380E199E09F93A0
:105320008F930E9485068EE099E00E94EC058091A3
:105330000A031F928F938BE099E09F938F930E94B3
:10534000850688E099E00E94EC058DB79EB74C96E3
:105350000FB6F8949EBF0FBE8DBF0E941F272091ED
:105360000D03211104C020910E03222321F09093FC
:1053700007038093060320910F03211104C020919D
:105380001003222321F090930503809304038BE004
:1053900093E00C940219EF92FF920F931F93CF9317
:1053A000DF9300D000D000D0CDB7DEB786E0EBE0D1
:1053B000F3E0DE01119601900D928A95E1F7E090FD
:1053C0000D03F0900E0300910F0310911003109243
:1053D0000D0310920E0310920F0310921003E110B0
:1053E00003C0FF2009F45DC080910603909107037C
:1053F0000E942B27AC0190910903992339F0209149
:105400001F0130E02417350758F04BC020912001D0
:105410008AE0289F900111242417350718F041C015
:105420009F3F19F09F5F90930903EE2061F00E9467
:10543000BC271E1414F09FEF01C091E0989F902D9F
:10544000112490930D03FF2061F00E94BC271F14CC
:1054500014F09FEF01C091E0989F902D112490933C
:105460000E0330910D033323E1F020910E0322232C
:10547000C1F045EB3403C0011124992319F0909336
:105480000D0303C081E080930D0335EB2303C001BE
:105490001124992319F090930E0303C081E08093A7
:1054A0000E03011103C0112309F45DC080910403B0
:1054B000909105030E942B27AC019091080399233A
:1054C00039F020911B0130E02417350758F04BC00C
:1054D00020911C018AE0289F900111242417350790
:1054E00018F041C09F3F19F09F5F9093080300237D
:1054F00061F00E940528101614F09FEF01C091E0A2
:10550000989F902D112490930F03112361F00E9416
:105510000528111614F09FEF01C091E0989F902D7F
:1055200011249093100330910F033323E1F0209165
:1055300010032223C1F045EB3403C0011124992349
:1055400019F090930F0303C081E080930F0335EBB4
:105550002303C0011124992319F09093100303C071
:1055600081E08093100380910D0381110BC0809125
:105570000E03811107C080910F03811103C0809138
:10558000100381110E942B29EB82FC820D831E8364
:1055900086E0FE013196ABE0B3E001900D928A9572
:1055A000E1F726960FB6F894DEBF0FBECDBFDF91B0
:1055B000CF911F910F91FF90EF900895EBE0F3E0F2
:1055C00086E0DF011D928A95E9F710920903109297
:1055D000080310920A0308958091340308959FB739
:1055E000F894109213039FBF90919603943009F0A2
:1055F00057C09091E9009F703091EC00232F2170EB
:1056000030FD20E8922B23E02093E9002091EB006D
:1056100020FF43C02091EE0027FF3FC020911103DF
:10562000222321F02091E80025FF37C010921103BA
:1056300026E03091E80035FD15C0309196033430F6
:1056400061F53091EB0035FD28C0215021F481E057
:105650008093110322C0EFE9FFE03197F1F700C01A
:105660000000E7CF8093F1008091E80085FD0AC03B
:105670008091E80080FFFCCF8091E8008E778093D6
:10568000E80006C08FB7F89421E0209313038FBF82
:105690009F709093E90080E008959F709093E900D7
:1056A0008FEF0895CF93DF9300D01F92CDB7DEB771
:1056B00090919603943019F589837B836A8382E005
:1056C0008093E9008FEF9091E800815095FD06C02E
:1056D00095ED9A95F1F700008111F5CF8091E800E2
:1056E00085FF0DC040E050E063E070E0CE01019620
:1056F0000E94DE2D8091E8008E778093E8000F9065
:105700000F900F90DF91CF910895BC0184E00C942D
:10571000522BBC0183E00C94522B22E02093E90031
:105720002FEF3091E800215035FD06C035ED3A9558
:10573000F1F700002111F5CF2091E80025FF0BC003
:1057400040E050E066E070E00E94DE2D8091E800CD
:105750008E778093E8000895CF93DF9320912B01FB
:10576000222339F02091900327FF03C060E222E05A
:1057700002C068E021E02093E9002FEF3091E800BB
:10578000215035FD06C035ED3A95F1F700002111A5
:10579000F5CF2091E80025FF1DC0EC0180912B0181
:1057A000811105C040E050E068E070E003C070E0A7
:1057B00040E050E0CE010E94DE2D8091E8008E771F
:1057C0008093E80080E2FE01A4E1B3E001900D9235
:1057D0008A95E1F7DF91CF91089587E799E00E94DC
:1057E000EC0580919503811109C00E946F2F0E94E2
:1057F000CC2F8091E20084608093E200089583E7DB
:1058000099E00E94EC051092950308958FE699E0C7
:105810000C94EC058BE699E00C94EC0587E699E096
:105820000E94EC050C94DA26209112032F5F822F40
:1058300062E30E948B32992319F02093120308959A
:105840001092120380911303882371F180919603C3
:10585000843041F58091E9008F702091EC00922F07
:10586000917020FD90E8892B93E09093E90090914E
:10587000EB0090FF14C09091EE0097FF10C0909144
:10588000E80095FF03C01092F100F9CF9091E80075
:1058900090FF05C09091E8009E779093E8008F708C
:1058A0008093E90010921303089542E061EC81E0D7
:1058B0000E94E82E42E261EC82E00E94E82E42E281
:1058C00061EC83E00C94E82E80919803833009F416
:1058D00060C030F4813071F0823009F499C00895CD
:1058E0008A3009F485C08B3009F46BC0893009F027
:1058F000A7C020C080919703813A09F0A1C0809190
:10590000E800877F8093E80080919B0390919C033F
:10591000892B21F460E284E193E003C060E080E041
:1059200090E070E00E94292E8091E8008B778093B0
:10593000E800089580919703813209F081C0809139
:105940009B0390919C03029708F07AC08091E80035
:10595000877F8093E8008091E80082FD05C08091F8
:1059600096038111F8CF6CC02091F3008091F20072
:1059700090E0922B029729F48091F1008B7F813087
:1059800021F48091F100809334038091E8008B77BB
:1059900053C080919703813A09F052C080919B03D4
:1059A00090919C03892B09F04BC08091E800877F80
:1059B0008093E8008091E80080FFFCCF80912B016C
:1059C00036C0809197038132D9F580919B039091E5
:1059D0009C03892BA9F58091E800877F8093E800DC
:1059E0000E941D2F8091990380932B010C942F1EF0
:1059F00080919703813221F58091E800877F809321
:105A0000E8000E941D2F80919A038093350308952A
:105A100080919703813AA1F48091E800877F809379
:105A2000E8008091E80080FFFCCF809135038093EF
:105A3000F1008091E8008E778093E8000C941D2F90
:105A4000089584B7877F84BF0FB6F894A895809196
:105A50006000886180936000109260000FBE90E04B
:105A600080E80FB6F89480936100909361000FBEB8
:105A70000E9454190E946F2F0E94CC2F8091E20047
:105A800084608093E2008FEE9AE20E94AF247894C3
:105A90000E9460320E945A1981E291E00E949C1893
:105AA00086E599E00E94EC0580919603853089F4A3
:105AB00082E599E00E94EC050E949426809194036F
:105AC000882391F30E947B26882371F30E94C82DBE
:105AD000EBCF0E948E190E9448190E944719E4CF0B
